S0120000536F6E61725F746573742E73726563F0
S11300000C94A7000C94C4000C94C4000C94C40079
S11300100C94C4000C94C4000C94C4000C94C4004C
S11300200C94C4000C94D1020C94C4000C94C4002D
S11300300C94C4000C94C4000C94C4000C94C4002C
S11300400C94C4000C94C4000C94C4000C94C4001C
S11300500C94C40000407A10F35A00A0724E1809A0
S11300600010A5D4E80000E87648170000E40B541B
S1130070020000CA9A3B000000E1F50500008096EA
S11300809800000040420F000000A086010000001C
S1130090102700000000E8030000000064000000D6
S11300A000000A00000000000100000000002C769F
S11300B0D888DC674F0823DFC1DFAE59E1B1B796BA
S11300C0E5E3E453C63AE651997696E8E6C2842617
S11300D0EB898C9B62ED407C6FFCEFBC9C9F40F2F3
S11300E0BAA56FA5F490055A2AF75C936B6CF9676F
S11300F06DC11BFCE0E40D47FEF520E6B500D0ED34
S1130100902E0300943577050080841E080000209B
S11301104E0A000000C80C333333330F986E128339
S11301201141EF8D2114893BE65516CFFEE6DB180D
S1130130D1844B381BF77C1D901DA4BBE4242032D2
S113014084725E228100C9F124ECA1E53D271124CB
S11301501FBECFE5D8E0DEBFCDBF10E0A0E6B0E023
S1130160E4E7F2E102C005900D92A039B107D9F796
S113017022E0A0E9B0E001C01D92AE35B207E1F77C
S11301800E947C030C9438090C94000087B3807F90
S113019087BB919A90980000929A000086B382954A
S11301A0807F000092980000929A000096B30000AD
S11301B092980000882384F3919887B38F6087BB5B
S11301C00895282F22952F708F70611102C0909886
S11301D001C0909A0000929A98B3907F922B98BB9A
S11301E0000092980000929A98B3907F892B88BB64
S11301F00000929800000E94C60008950F931F9378
S1130200CF93DF938C01FC018081882309F185322F
S1130210A9F4E8012196F80181818053883020F403
S113022061E00E94E1000EC061E085E20E94E1000D
S113023061E0F80181810E94E10004C061E00E9454
S1130240E100E8018E010F5F1F4F89818111DFCF2B
S1130250DF91CF911F910F910895803138F461306F
S113026009F4806460E080680E94E1000895CF93FF
S1130270C82F8BE49DE10197F1F700C0000087B31C
S11302808F6087BB8A9A889A899A88B3807F88BB53
S11302909298919890980000929AC19A000092982E
S11302A000000E94C60060E08C2F8C600E94E10078
S11302B060E088E20E94E10060E080E00E942D019D
S11302C0CF9108950F931F93CF93DF93A4E8B1E0E8
S11302D0C4E0D2E000E010E011C02D913C911197F0
S11302E0529142914D935D933183208301968830DE
S11302F0910599F7C617D70741F0DB01BD01605F8F
S11303007F4FFB01802F912FE8CFDF91CF911F9179
S11303100F910895CF92DF92EF92FF920F931F9364
S1130320CF93DF9366E970E0AAEFB0E006EA10E04D
S11303300F2EF7E0CF2EF02DD12CE12CF12CEB0178
S1130340FD018C2D9D2D2E2D3F2D41915191082E77
S113035002C0440F551F0A94E2F7242B352B019752
S1130360A0F7398328836E5F7F4F5096601771071B
S113037031F7DF91CF911F910F91FF90EF90DF90B4
S1130380CF900895CF930E9462010E948A0124EFC6
S113039031E062E670E046E950E08AE690E013C09E
S11303A0CD91CBBBC0813296C095C5BBC1E2CA9585
S11303B0F1F70000A817B90799F71BBA21503109C2
S11303C02115310519F0DB01FA01EACFCF91089527
S11303D0BC01882777FD8095982F0E94C8050E944C
S11303E078060E94950563307105C1F0643071058B
S11303F0C1F065307105C1F066307105C1F0673038
S11304007105C1F068307105C1F069307105C1F042
S11304106A307105C1F08FEF9FEF089580E090E09E
S1130420089581E090E0089582E090E0089583E0EB
S113043090E0089584E090E0089585E090E00895C8
S113044086E090E0089587E090E00895BC01882755
S113045077FD8095982F0E94C8050E9478060E9417
S113046095059B016350710962307105C0F0253018
S11304703105C1F026303105C1F027303105C1F016
S113048028303105C1F029303105C1F02A30310559
S1130490C1F02B303105C1F08FEF9FEF089580E05C
S11304A090E0089581E090E0089582E090E008955E
S11304B083E090E0089584E090E0089585E090E082
S11304C0089586E090E0089587E090E008950F9302
S11304D01F93CF93DF938B010E942602EC0190932C
S11304E0950080939400C8010E94E8019C019093B8
S11304F0930080939200992354F1DD2344F1809179
S11305006A0090916B008130910589F4220F331FAA
S1130510220F331F220F331FC20FD31FCC0FDD1F37
S1130520C650DF4F81E090E09983888310C0892B07
S113053071F4220F331F220F331F220F331FC20FF8
S1130540D31FCC0FDD1FC650DF4F19821882DF91F5
S1130550CF911F910F9108958FEF8ABB84BB0895AB
S11305602AEF30E04AE751E070E060E00BC01192FE
S11305701192019688309105D1F7205F3F4F2417DF
S1130580350721F0F901872F962FF1CF0E94C20180
S11305901092950010929400109293001092920081
S11305A008951F920F920FB60F9211248F939F9369
S11305B08091900090919100019690939100809386
S11305C090009F918F910F900FBE0F901F901895E0
S11305D02F923F924F925F926F927F928F929F924F
S11305E0AF92BF92CF92DF92EF92FF920F931F933D
S11305F0CF93DF9300D000D000D0CDB7DEB716166E
S113060017060CF058C07B01EE0CFF1CEE0CFF1C0F
S1130610E80EF91E6C01A12CB12C19821A821B82DE
S11306201C82482E592E312C212C3BC0ED81FE8199
S11306306191719181919191FE83ED83262D372DE6
S1130640482D592D0E94C4040E9495059B017723CF
S113065024F422273327261B370BB901882777FD7B
S11306608095982F0E94C8052AE939E949E15FE39A
S11306700E942905882314F40F5F1F4F8D819E81EA
S11306808E159F0599F6A016B1062CF458016982BF
S11306907A828B829C8294E0C90ED11CCE14DF0432
S11306A071F0F60160807180828093804D825E8259
S11306B0032D122DBBCF19821A821B821C826981E1
S11306C07A818B819C8126960FB6F894DEBF0FBE8B
S11306D0CDBFDF91CF911F910F91FF90EF90DF90ED
S11306E0CF90BF90AF909F908F907F906F905F90CE
S11306F04F903F902F90089580E884BF84BFBC9AA8
S113070081BB8B980E94AC028FEF82BB81E00E9478
S1130710370160E080E00E942D018CE690E00E94A9
S1130720FE00789484E089BF1FBC0F2EF6E3CF2E21
S1130730F2E0DF2EF02D0F2EF1E48F2EF02D6894D1
S1130740BB24B5F8682C7B2C0F2EFEECEF2EF0E0CA
S1130750FF2EF02D0F2EFEE02F2EF2E03F2EF02D77
S11307606894AA24A2F8992493945A2C0F2EF7E0A3
S11307704F2EF02DC498E101979A83E08A95F1F702
S1130780000097981DBC1CBC6EBC78BE58BE08B651
S113079005FEFDCF1DBC1CBC9EBCB8BEA8BE1092FD
S11307A091001092900008B605FEFDCF66B577B5AE
S11307B080E090E00E94C80523E333E349E652E475
S11307C00E942D050E9478066993799389939993E1
S11307D0CC15DD0589F66AE070E0C1010E94E802EB
S11307E00E9478060E9495057093F9006093F800C2
S11307F0882777FD8095982F0E94C8050AE711E0A5
S113080022E042E00E94C106D8010D900020E9F7E1
S11308101197E7E7F0E0842D01900D928A95E1F7B6
S113082060E0892D0E94E10060E080E00E942D01DB
S11308308EE790E00E94FE0060E085E00E942D01BA
S1130840C8010E94FE008FE493EC0197F1F700C009
S11308500000C49AC6EAD0E0979A93E09A95F1F71B
S1130860000097981DBC1CBC8EBCB8BEA8BE08B6C0
S113087005FEFDCF1DBC1CBC9EBCB8BEA8BE10921C
S113088091001092900008B605FEFDCF66B577B5CD
S113089080E090E00E94C80523E333E349E652E494
S11308A00E942D050E947806699379938993999300
S11308B0CE15DF0589F66AE070E086EA90E00E94D2
S11308C0E8020E9478060E9495057093F7006093F1
S11308D0F600882777FD8095982F0E94C80504E0CC
S11308E012E022E042E00E94C106D8010D900020EF
S11308F0E9F71197E7E7F0E0842D01900D928A95CE
S1130900E1F7692D80E00E942D0183E890E00E94C8
S1130910FE00692D85E00E942D01C8010E94FE00A1
S11309208FE493EC0197F1F700C000008091600020
S11309309091610090936B0080936A006091F6003F
S11309407091F7008091F8009091F9000E9467027D
S11309500E94C201839B0ECF60E081E00E94E1000F
S113096060E080E00E942D0188E890E00E94FE0093
S11309700E94B0028B9A93988B9887EA91E601972C
S1130980F1F700C00000ECCE5058BB27AA270ED0C8
S113099075C166D130F06BD120F031F49F3F11F472
S11309A01EF45BC10EF4E095E7FB51C1E92F77D14A
S11309B080F3BA17620773078407950718F071F478
S11309C09EF58FC10EF4E0950B2EBA2FA02D0B01CE
S11309D0B90190010C01CA01A0011124FF27591B80
S11309E099F0593F50F4503E68F11A16F040A22F86
S11309F0232F342F4427585FF3CF469537952795F7
S1130A00A795F0405395C9F77EF41F16BA0B620BF5
S1130A10730B840BBAF09150A1F0FF0FBB1F661F3C
S1130A20771F881FC2F70EC0BA0F621F731F841F7F
S1130A3048F4879577956795B795F7959E3F08F0A5
S1130A40B3CF9395880F08F09927EE0F9795879564
S1130A500895D9D008F481E008950CD00FC107D1CE
S1130A6040F0FED030F021F45F3F19F0F0C0511196
S1130A7039C1F3C014D198F39923C9F35523B1F3C1
S1130A80951B550BBB27AA2762177307840738F0F9
S1130A909F5F5F4F220F331F441FAA1FA9F333D058
S1130AA00E2E3AF0E0E830D091505040E695001C0C
S1130AB0CAF729D0FE2F27D0660F771F881FBB1FC8
S1130AC0261737074807AB07B0E809F0BB0B802DA2
S1130AD0BF01FF2793585F4F2AF09E3F510568F0EE
S1130AE0B6C000C15F3FECF3983EDCF38695779582
S1130AF06795B795F7959F5FC9F7880F911D9695F0
S1130B00879597F90895E1E0660F771F881FBB1F4B
S1130B10621773078407BA0720F0621B730B840BF8
S1130B20BA0BEE1F88F7E095089504D06894B111CC
S1130B30D9C00895BCD088F09F5790F0B92F992759
S1130B40B751A0F0D1F0660F771F881F991F1AF0D4
S1130B50BA95C9F712C0B13081F0C3D0B1E008959D
S1130B60C0C0672F782F8827B85F39F0B93FCCF31E
S1130B70869577956795B395D9F73EF490958095CA
S1130B80709561957F4F8F4F9F4F0895E89409C0EA
S1130B9097FB3EF490958095709561957F4F8F4FAC
S1130BA09F4F9923A9F0F92F96E9BB279395F695C2
S1130BB0879577956795B795F111F8CFFAF4BB0F40
S1130BC011F460FF1BC06F5F7F4F8F4F9F4F16C0A4
S1130BD0882311F096E911C0772321F09EE8872F2E
S1130BE0762F05C0662371F096E8862F70E060E0EA
S1130BF02AF09A95660F771F881FDAF7880F969563
S1130C00879597F90895990F0008550FAA0BE0E806
S1130C10FEEF16161706E807F907C0F012161306BA
S1130C20E407F50798F0621B730B840B950B39F4FA
S1130C300A2661F0232B242B252B21F408950A2660
S1130C4009F4A140A6958FEF811D811D089597F9A0
S1130C509F6780E870E060E008959FEF80EC08955E
S1130C6000240A9416161706180609060895002487
S1130C700A9412161306140605060895092E039401
S1130C80000C11F4882352F0BB0F40F4BF2B11F475
S1130C9060FF04C06F5F7F4F8F4F9F4F089557FDD4
S1130CA09058440F551F59F05F3F71F04795880FD6
S1130CB097FB991F61F09F3F79F08795089512166D
S1130CC013061406551FF2CF4695F1DF08C0161619
S1130CD017061806991FF1CF8695710561050894CA
S1130CE00895E894BB2766277727CB0197F90895E1
S1130CF0DEDFE0F09E37D8F09639B8F49E3848F439
S1130D00672F782F8827985FF9CF86957795679511
S1130D1093959539D0F3B62FB1706B0F711D811D6A
S1130D2020F4879577956795939502C01CC0DACF18
S1130D30882371F4772321F09850872B762F07C0EE
S1130D40662311F499270DC09051862B70E060E062
S1130D502AF09A95660F771F881FDAF7880F969501
S1130D60879597F908959F3F31F0915020F4879526
S1130D7077956795B795880F911D9695879597F9FF
S1130D800895EF920F931F93CF93DF93E80147FFEA
S1130D9002C034E101C034E0E42FFF27E7FDF09501
S1130DA0F7FF03C0F195E195F109E32E022F2E2FF1
S1130DB0AE010E94E206CE01DF91CF911F910F9107
S1130DC0EF9008956F927F929F92AF92BF92CF92CD
S1130DD0DF92EF92FF920F931F93CF93DF93CDB7E0
S1130DE0DEB729970FB6F894DEBF0FBECDBF6A01F8
S1130DF0B22E102F0C3320F4FF24F394F00E02C013
S1130E004CE3F42E0F2D27E0AE014F5F5F4F0E949D
S1130E1060087981272F2970213031F0E1FC06C068
S1130E20E0FC06C060E005C06DE203C06BE201C0F7
S1130E3060E2AE2DA07173FF36C0662311F084E02A
S1130E4001C083E08B1510F4B81A01C0B12CA111B4
S1130E500BC0F6018B2D90E2882319F091938150F9
S1130E60FBCFCB0CD11CB12C662331F0F60160838F
S1130E7096012F5F3F4F6901C6010396E2FE05C04C
S1130E802EE4F601208331E404C02EE6F60120832B
S1130E9031E631832283FC012B2D30E22223F1F150
S1130EA031932150FBCF72FF40C0662311F084E0E0
S1130EB001C083E08B1510F4B81A01C0B12CA11144
S1130EC00BC0F6018B2D90E2882319F09193815089
S1130ED0FBCFCB0CD11CB12C662331F0F60160831F
S1130EE096012F5F3F4F6901C6010396E2FE07C0DA
S1130EF029E4F60120832EE4218326E406C029E6B2
S1130F00F60120832EE6218326E62283FC012B2D85
S1130F1030E2222319F031932150FBCFFC01EB0D79
S1130F20F11D10828EEF9FEFB7C0B1E0611101C0D7
S1130F30B0E04B2F50E01816190624F49C012F5FE3
S1130F403F4F02C021E030E0240F351F112329F068
S1130F50412F50E04F5F5F4F02C040E050E0420F2E
S1130F60531F2B2D30E04217530714F4B41A01C059
S1130F70B12C2E2D287159F4F6012B2D30E22223A9
S1130F8019F031932150FBCFCB0CD11CB12CBB23D6
S1130F9031F0F601608396012F5F3F4F6901A11183
S1130FA00BC0F6012B2D30E3222319F0319321508D
S1130FB0FBCFCB0CD11CB12CF80E0A81372F30712A
S1130FC0A32E74FF03C0013309F4FA941F142CF404
S1130FD02F2D293018F028E001C021E0682F392F87
S1130FE097FF02C060E030E0462F532F612C712C34
S1130FF03EE2932EBC01621B71099B01DC01A41B20
S1131000B50BE1E0F0E0EC0FFD1FAE0FBF1FE12ECA
S1131010F12CF194E194F1084F3FFFEF5F0731F4B5
S1131020F6019082B6016F5F7F4F6B0184179507BD
S11310304CF02417350734F4BD01660D771DFB0110
S1131040118101C010E341505109FFEF6F1A7F0A6B
S1131050B6016F5F7F4F4E155F0524F0F6011083D4
S11310606B01DACF4817590739F4063320F40533F6
S113107019F4A11001C011E3F6011083FB018B2DBB
S113108090E2882319F091938150FBCFFB01EB0D83
S1131090F11D108280E090E029960FB6F894DEBF2F
S11310A00FBECDBFDF91CF911F910F91FF90EF90B5
S11310B0DF90CF90BF90AF909F907F906F900895F6
S11310C0283008F027E03327DA01990F311D87FD16
S11310D0916000966105710539F432602E5F3D938D
S11310E030E32A95E1F708959F3F30F08038710589
S11310F0610509F03C5F3C5F3D93913008F08068E6
S1131100911DDF93CF931F930F93FF92EF92192FAB
S1131110987F9695E92F96959695E90FFF27E255C6
S1131120FF4F99273327EE24FF24A701E7010590F9
S11311300894079428F4360FE71EF81E491F511D22
S1131140660F771F881F991F0694A1F705900794CF
S113115028F4E70EF81E491F561FC11D770F881F7C
S1131160991F661F0694A1F70590079428F4F80EBA
S1131170491F561FC71FD11D880F991F661F771F50
S11311800694A1F70590079420F4490F561FC71F32
S1131190D81F990F661F771F881F0694A9F784919B
S11311A01095177041F0D695C79557954795F794C4
S11311B0E7941A95C1F7E4E5F0E068941590159169
S11311C035916591959105907FE27395E118F10A47
S11311D0430B560BC90BD009C0F7E10CF11E431F9A
S11311E0561FC91FD01D7EF4703311F48A95E6CFC3
S11311F0E894015030F0080F0AF40027021708F4AD
S1131200202F2395022F7A3328F079E37D932A95B2
S1131210E9F710C07D932A9589F60694979567950A
S1131220379517951794E118F10A430B560BC90B20
S1131230D00998F023957E9173957A3308F070E382
S11312407C932013B8F77E9170617D9330F0839581
S113125071E37D9370E32A95E1F71124EF90FF90F9
S11312600F911F91CF91DF91992787FD9095089554
S1071270F894FFCF1C
S1131274010001020408102040800100556C7472BE
S113128461736F6E69630020636D20202000582011
S11312943D200059203D20004572617365212100E1
S9030000FC
